:100000000C9463000C948B000C948B000C948B006C
:100010000C948B000C948B000C948B000C948B0034
:100020000C948B000C948B000C948B000C948B0024
:100030000C948B000C948B000C948B000C948B0014
:100040000C940E070C948B000C9496020C94700286
:100050000C948B000C948B000C948B000C948B00F4
:100060000C9462030C948B00000000002400270015
:100070002A0000000000250028002B0000000000DE
:1000800023002600290004040404040404040202DA
:100090000202020203030303030301020408102007
:1000A0004080010204081020010204081020000012
:1000B0000008000201000003040700000000000027
:1000C0000000010DFB0C11241FBECFEFD8E0DEBFF6
:1000D000CDBF25E0ACE4B4E001C01D92AA3DB2075B
:1000E000E1F714E0A0E0B1E0EAE9F0E202C0059037
:1000F0000D92AC34B107D9F710E0C2E6D0E004C0ED
:100100002197FE010E943E0EC136D107C9F70E9419
:1001100058070C9440100C940000CF92DF92EF929D
:10012000FF920F931F93CF93DF936C017A018B01A2
:10013000C0E0D0E0CE15DF0581F0D8016D918D01D2
:10014000D601ED91FC910190F081E02DC601099559
:10015000892B11F02196EECF7E01C701DF91CF915F
:100160001F910F91FF90EF90DF90CF9008950E9424
:100170002B106115710579F0FB0101900020E9F762
:100180003197AF01461B570BDC01ED91FC910280CA
:10019000F381E02D099480E090E00895FC01538DF7
:1001A000448D252F30E0842F90E0821B930B541751
:1001B00010F0CF96089501970895FC01918D828DDE
:1001C000981761F0828DDF01A80FB11D5D968C91AB
:1001D000928D9F5F9F73928F90E008958FEF9FEFB6
:1001E0000895FC01918D828D981731F0828DE80F72
:1001F000F11D858D90E008958FEF9FEF0895FC012C
:10020000918D228D892F90E0805C9F4F821B9109F8
:100210008F739927089582E195E00E94FF0021E005
:10022000892B09F420E0822F0895FC01848DDF01E1
:10023000A80FB11DA35ABF4F2C91848D90E0019659
:100240008F739927848FA689B7892C93A089B18948
:100250008C91837080648C93938D848D981306C0E9
:100260000288F389E02D80818F7D80830895EF924D
:10027000FF920F931F93CF93DF93EC0181E0888F60
:100280009B8D8C8D981305C0E889F989808185FD47
:1002900026C0F62E0B8D10E00F5F1F4F0F73112736
:1002A000E02E8C8DE8120CC00FB607FCFACFE8895F
:1002B000F989808185FFF5CFCE010E941501F1CF2C
:1002C0008B8DFE01E80FF11DE35AFF4FF0829FB7BF
:1002D000F8940B8FEA89FB89808180620AC09FB7FE
:1002E000F894EE89FF896083E889F98980818370B9
:1002F000806480839FBF81E090E0DF91CF911F9168
:100300000F91FF90EF900895CF93DF93EC01888DCC
:100310008823C9F0EA89FB89808185FD05C0A88909
:10032000B9898C9186FD0FC00FB607FCF5CF80818F
:1003300085FFF2CFA889B9898C9185FFEDCFCE01D9
:100340000E941501E7CFDF91CF91089580E090E002
:10035000892B29F00E940B0181110C940000089553
:1003600085ED8093BC008091BC0084FDFCCF109291
:100370000D05089540919E04262F30E0240F311D75
:1003800021323105DCF420910D052430C9F4FC0143
:1003900080E090E0861758F430919E042191DC01B2
:1003A000A258BB4FA30FB11D2C930196F3CF8091A0
:1003B0009E04680F60939E0480E0089581E0089594
:1003C00082E00895089508950895E09111058091BF
:1003D0001005E81730F4F0E0E25AFB4F808190E01E
:1003E00008958FEF9FEF089590911105809110056A
:1003F000981750F4E92FF0E0E25AFB4F208130E0EB
:100400009F5F9093110502C02FEF3FEFC901089540
:100410008091100590E020911105821B91090895AB
:10042000CF92DF92EF92FF920F931F93CF93DF93C0
:100430007C01CB018A012091E504222389F0EB01A4
:100440006B01C40ED51ECC15DD0569F06991D7018D
:10045000ED91FC910190F081E02DC7010995F3CF5A
:10046000642F0E94BA01C801DF91CF911F910F91B3
:10047000FF90EF90DF90CF900895CF93DF931F927E
:10048000CDB7DEB769832091E5042223D1F0209116
:100490000E05203240F021E030E0FC01338322835E
:1004A00080E090E015C080910F05E82FF0E0EA5160
:1004B000FB4F998190838F5F80930F0580930E058A
:1004C00005C061E0CE0101960E94BA0181E090E092
:1004D0000F90DF91CF910895089580E090E0089506
:1004E0001F920F920FB60F9211242F933F934F93A9
:1004F0005F936F937F938F939F93AF93BF93EF938C
:10050000FF9382E195E00E941501FF91EF91BF9169
:10051000AF919F918F917F916F915F914F913F919B
:100520002F910F900FBE0F901F9018951F920F9252
:100530000FB60F9211242F938F939F93EF93FF93F6
:10054000E0912205F09123058081E0912805F0914A
:10055000290582FD12C0908180912B058F5F8F73DA
:1005600020912C05821751F0E0912B05F0E0EE5E12
:10057000FA4F958F80932B0501C08081FF91EF91F9
:100580009F918F912F910F900FBE0F901F901895F4
:10059000CF93FC01C48121E02093E504C0930605BC
:1005A00010920F0510920E058385682B8FEA95E057
:1005B0000E943D0290910E05913208F045C0809155
:1005C0000D058111FCCF82E080930D0581E08093C1
:1005D0000C058FEF8093E4041092E3049093E204FF
:1005E000A6EEB4E0E2ECF4E080E0981721F02D9163
:1005F00021938F5FFACF1092C1048091C104CC0F78
:10060000C82BC093C10480910B05813061F4109216
:100610000B058091C1048093BB008091BC0083FDD9
:10062000F8CF85EC01C085EE8093BC0080910D056C
:100630008230E1F38091E4048F3F31F08091E40453
:10064000803211F08091E40410920F0510920E0593
:100650001092E504CF9108950F931F93CF938C01CF
:10066000C62F0E94C8026C2F6460C8010E94C80295
:100670006C2F6B7FC8010E94C80283EC90E0019749
:10068000F1F7CF911F910F9108950F931F93CF937F
:10069000DF938C01C62FD42F607F642B0E942C0324
:1006A00080E1C89FB00111246D2BC801DF91CF916B
:1006B0001F910F910C942C0341E00E94450381E0AF
:1006C00090E008951F920F920FB60F9211242F936E
:1006D0003F934F935F936F937F938F939F93AF93CA
:1006E000BF93EF93FF938091B900887F803609F420
:1006F0009CC068F5883209F45BC090F4803109F43D
:1007000054C038F4882309F4F6C0883009F44DC089
:10071000F6C0883109F44CC0803209F45DC0EFC0E6
:10072000803409F468C048F4803309F455C0883334
:1007300009F0E5C08093E404D8C0803509F44FC0C7
:10074000883509F45DC0883409F0D9C0D6C088392D
:1007500009F4C7C0A8F4883709F467C038F48836AC
:1007600009F463C0803709F460C0C9C0883809F44F
:10077000B8C0803909F45FC0803809F0C0C05BC0E0
:10078000803B09F486C038F4803A09F466C0883AA0
:1007900009F47FC0B4C0803C09F4A7C0883C09F4C8
:1007A000A4C0883B09F48AC0AAC08091C10410C0CB
:1007B0009091E3048091E204981770F5E091E304CE
:1007C00081E08E0F8093E304F0E0EE53FB4F8081D5
:1007D0008093BB0085EC86C08093E4048EC0E091DA
:1007E000E30481E08E0F8093E3048091BB00F0E08E
:1007F000EE53FB4F80839091E3048091E2046EC03E
:10080000E091E30481E08E0F8093E3048091BB00CC
:10081000F0E0EE53FB4F808380910C0581116DC099
:1008200081E080930B0584EA61C083E080930D052D
:100830001092C004CFCF8091C004803208F051C024
:10084000E091C00481E08E0F8093C0048091BB00D2
:10085000F0E0E056FB4F8083BDCF85EC8093BC0079
:1008600010920D058091C004803230F4E091C004F4
:10087000F0E0E056FB4F10826091C00470E0E09120
:100880000705F091080580EA94E009951092C004EC
:1008900036C084E080930D0510929F0410929E0450
:1008A000E0910905F0910A05099580919E04811156
:1008B00005C081E080939E0410927E04E0919F0425
:1008C00081E08E0F80939F04F0E0E258FB4F80811F
:1008D0008093BB0090919F0480919E04981708F428
:1008E00079CF85E88093BC000AC085EC8093BC007A
:1008F00010920D0504C01092E4040E94B001FF9113
:10090000EF91BF91AF919F918F917F916F915F9187
:100910004F913F912F910F900FBE0F901F90189500
:10092000CF92DF92EF92FF920F931F93CF936B01C1
:100930007C01CB010E94B00DC82FC60101960E9418
:10094000B00D182FC60102960E94B00D082FC601E7
:1009500003960E94B00D412F50E060E070E0762FCA
:10096000652F542F44274C0F511D611D711D10E040
:1009700020E030E0980111270027400F511F621F2F
:10098000731F90E0A0E0B0E0B82FAA27992788272E
:100990008A019B01080F191F2A1F3B1FC901B801BB
:1009A000CF911F910F91FF90EF90DF90CF9008951E
:1009B000CF92DF92EF92FF92CF93DF93EC016A0127
:1009C0007B01642F0E94B80D9927F7FC9A958F2D13
:1009D0007E2D6D2DCE0101960E94B80DB70199278D
:1009E00077FD9095892FCE0102960E94B80D6F2D4C
:1009F000772788279927CE010396DF91CF91FF9023
:100A0000EF90DF90CF900C94B80D833081F028F4F4
:100A1000813099F08230A1F008958730A9F08830B4
:100A2000B9F08430D1F4809180008F7D03C0809133
:100A300080008F7780938000089584B58F7702C0FF
:100A400084B58F7D84BD08958091B0008F7703C0F9
:100A50008091B0008F7D8093B00008953FB7F894E7
:100A60008091D2059091D305A091D405B091D50580
:100A700026B5A89B05C02F3F19F00196A11DB11DF9
:100A80003FBFBA2FA92F982F8827820F911DA11D34
:100A9000B11DBC01CD0142E0660F771F881F991F71
:100AA0004A95D1F70895BC0181EC95E00C94B9000A
:100AB000CF93DF93CDB7DEB728970FB6F894DEBF9C
:100AC0000FBECDBF98E0E8E6F3E0DE01119601909D
:100AD0000D929A95E1F79091C905961710F46FEF72
:100AE000690FFE013196E60FF11DE60FF11D6081E1
:100AF000680F606840E081EC95E028960FB6F894A6
:100B0000DEBF0FBECDBFDF91CF910C9445038F9216
:100B10009F92AF92BF92CF92DF92EF92FF92CF93CC
:100B2000DF93CDB7DEB7A1970FB6F894DEBF0FBE47
:100B3000CDBF6C01990FEE08FF08F7FE2CC041E015
:100B40006DE281EC95E00E94450322273327A9013D
:100B50002C193D094E095F0919A2CE0181967C012D
:100B60009AE0892E912CA12CB12CCA01B901A501C2
:100B700094010E94FD0D605DF70162937F012115D4
:100B800031054105510589F7BF0181EC95E00E94CF
:100B9000B90001961FC0A701960119A2CE01819646
:100BA0007C018AE0882E912CA12CB12CCA01B901BC
:100BB000A50194010E94FD0D605DF70162937F0124
:100BC000211531054105510589F7BF0181EC95E0FB
:100BD0000E94B900A1960FB6F894DEBF0FBECDBF3C
:100BE000DF91CF91FF90EF90DF90CF90BF90AF90CB
:100BF0009F908F900895CF93DF93BC0182E195E0A1
:100C00000E94B900EC0168E474E082E195E00E9482
:100C1000B9008C0F9D1FDF91CF910895CF93DF9383
:100C2000282F30E0F901E255FF4F8491F901E65693
:100C3000FF4FD491F901EA57FF4FC491CC2391F0B3
:100C400081110E940505EC2FF0E0EE0FFF1FE45824
:100C5000FF4FA591B491EC91ED2381E090E021F458
:100C600080E002C080E090E0DF91CF9108951F9373
:100C7000CF93DF93282F30E0F901E255FF4F8491A5
:100C8000F901E656FF4FD491F901EA57FF4FC4919D
:100C9000CC23C1F0162F81110E940505EC2FF0E046
:100CA000EE0FFF1FEE58FF4FA591B4919FB7F89438
:100CB000111104C08C91D095D82302C0EC91DE2B89
:100CC000DC939FBFDF91CF911F9108951092110582
:100CD0001092100510920F0510920E0510920D053E
:100CE00081E080930C0510920B0561E082E10E9487
:100CF000370661E083E10E943706E9EBF0E080818E
:100D00008E7F808380818D7F808388E48093B8008C
:100D100085E48093BC0082EE91E090930A05809375
:100D2000090583EE91E090930805809307050895E7
:100D3000CF93DF9390E0FC01E656FF4F2491FC0136
:100D4000EA57FF4F8491882361F190E0880F991F43
:100D5000FC01E859FF4FC591D491FC01EE58FF4FBB
:100D6000A591B491611109C09FB7F894888120952D
:100D700082238883EC912E230BC0623061F49FB7ED
:100D8000F8948881322F309583238883EC912E2B21
:100D90002C939FBF06C08FB7F894E8812E2B288331
:100DA0008FBFDF91CF9108958F929F92AF92BF92A4
:100DB000CF92DF92EF92FF926B017C010E942E0591
:100DC0004B015C01C114D104E104F104F1F00E9473
:100DD0002E05DC01CB0188199909AA09BB09883EB7
:100DE0009340A105B10570F321E0C21AD108E108D2
:100DF000F10888EE880E83E0981EA11CB11CC11476
:100E0000D104E104F10419F7DDCFFF90EF90DF90FA
:100E1000CF90BF90AF909F908F9008951F920F92A8
:100E20000FB60F9211242F933F938F939F93AF93FD
:100E3000BF938091CE059091CF05A091D005B09140
:100E4000D1053091CD0523E0230F2D3720F40196F5
:100E5000A11DB11D05C026E8230F0296A11DB11DDD
:100E60002093CD058093CE059093CF05A093D00518
:100E7000B093D1058091D2059091D305A091D4056E
:100E8000B091D5050196A11DB11D8093D205909317
:100E9000D305A093D405B093D505BF91AF919F9191
:100EA0008F913F912F910F900FBE0F901F9018952B
:100EB000789484B5826084BD84B5816084BD85B535
:100EC000826085BD85B5816085BD80916E00816041
:100ED00080936E00109281008091810082608093E7
:100EE00081008091810081608093810080918000E9
:100EF0008160809380008091B10084608093B10014
:100F00008091B00081608093B00080917A0084600D
:100F100080937A0080917A00826080937A00809139
:100F20007A00816080937A0080917A008068809353
:100F30007A001092C100E0912205F091230582E031
:100F40008083E0911E05F0911F051082E09120053D
:100F5000F091210580E1808310922A05E091260519
:100F6000F091270586E08083E0912405F091250526
:100F7000808180618083E0912405F0912505808146
:100F800088608083E0912405F09125058081806848
:100F90008083E0912405F091250580818F7D8083F9
:100FA0000E9466060E9466061092C6058091CB05D7
:100FB000823018F098E09093C6058093C90562E3EB
:100FC00070E080E090E00E94D4066091CC0581EC56
:100FD00095E00E94C80268EE73E080E090E00E9415
:100FE000D40660E381EC95E00E942C03CBE4D6E4C8
:100FF000CE010197F1F760E381EC95E00E942C03AC
:101000002197F1F760E381EC95E00E942C0383E5E2
:1010100092E00197F1F760E281EC95E00E942C03E9
:101020006091C605606240E081EC95E00E94450356
:1010300084E08093C70540E06CE081EC95E00E947D
:10104000450340E061E081EC95E00E944503CBE37D
:10105000DFE1CE010197F1F782E08093C80540E01F
:1010600066E081EC95E00E94450340E062E081EC9F
:1010700095E00E944503CE010197F1F788E0809347
:10108000CC0560E081EC95E00E94C80280EA93E024
:101090000E94530562E080E00E94580583EB93E0D4
:1010A0000E94530568E873E180E090E00E94D40656
:1010B00040E061E081EC95E00E9445032197F1F763
:1010C0008EEB93E00E94530561E080E00E9458059A
:1010D00080ED93E00E94530562E080E00E94580595
:1010E00083EE93E00E94530562E089E00E94580578
:1010F00060E071E084EF92E00E94391084EF92E0AA
:101100000E94530563E080E00E9458058CEE93E056
:101110000E94530563E089E00E94580580915404C1
:10112000909155040E94870583EF93E00E94530538
:1011300080915204909153040E94870583EF93E0BD
:101140000E94530580915004909151040E9487059C
:101150008AE094E00E94530562E08FE00E949806C6
:1011600062E080E10E94980661E08FE00E9437060D
:1011700061E080E10E94370662E08EE00E949806FE
:1011800062E081E10E94980661E08BE00E9498068F
:1011900060E08BE00E94370661E08CE00E949806D8
:1011A00060E08CE00E94370661E08DE00E949806C6
:1011B00060E08DE00E94370699E288E10FB6F8946E
:1011C000A895809360000FBE9093600060E070E08F
:1011D000CB010E94900460935A0470935B04809347
:1011E0005C0490935D0466246394712C90E1C92E95
:1011F0009EE0D92EE12CF12C2CE3822E912CA12CF7
:10120000B12CA89580915A0490915B04A0915C0444
:10121000B0915D04892B8A2B8B2B61F48FE00E94A7
:101220000E06892B09F464C280E10E940E06892B08
:1012300009F494C28FE00E940E06892B09F06FC05A
:1012400080E10E940E06892B09F4B1C268C062E0F9
:1012500089E00E94580582E094E00E94530562E014
:1012600088E00E94580585EF93E00E945305809125
:101270005804909159040E948705A8958FE00E9418
:101280000E06892B09F098C280E10E940E06892B78
:1012900009F092C2C0915604D09157042196D09380
:1012A0005704C09356046AEF70E080E090E00E941B
:1012B000D4066E9719F562E088E00E94580580E038
:1012C00094E00E94530562E274E084EF92E00E9491
:1012D000391062E089E00E94580584EF92E00E9494
:1012E000530540E050E0BA0180E090E00E94D8044D
:1012F00060E177E280E090E00E94D406809158049B
:1013000090915904019690935904809358048091C8
:101310005804909159044F970CF499CFA8958EE0FA
:101320000E940E06892B09F070C06AEF70E080E021
:1013300090E00E94D4068EE00E940E06892B09F0F0
:1013400064C062E089E00E94580584E094E00E9455
:1013500053056BE274E084EF92E00E94391062E082
:1013600089E00E94580584EF92E00E9453058BE2C9
:1013700094E00E94FB0562E370E080E090E00E9450
:10138000D40670924D0460924C0480914C0490916C
:101390004D04893592405CF5A89562E089E00E9491
:1013A000580582E094E00E94530562E089E00E94C3
:1013B000580584E394E00E9453058EE00E940E06D7
:1013C000892B31F464EF71E080E090E00E94D40654
:1013D0008EE00E940E06019751F080914C0490918E
:1013E0004D04019690934D0480934C04CECF62E05F
:1013F00089E00E94580580E094E00E94530568EC63
:1014000071E084EF92E00E94391081E10E940E06A3
:10141000892B09F070C06AEF70E080E090E00E94D4
:10142000D40681E10E940E06892B09F064C062E0B7
:1014300089E00E94580584E094E00E9453056DE322
:1014400074E084EF92E00E94391062E089E00E942B
:10145000580584EF92E00E9453058DE394E00E94CA
:10146000FB0562E370E080E090E00E94D406709299
:101470004D0460924C0480914C0490914D04893548
:1014800092405CF5A89562E089E00E94580582E0F0
:1014900094E00E94530562E089E00E94580584E3CD
:1014A00094E00E94530581E10E940E06892B31F4DD
:1014B00064EF71E080E090E00E94D40681E10E9438
:1014C0000E06019751F080914C0490914D040196C5
:1014D00090934D0480934C04CECF62E089E00E944B
:1014E000580580E094E00E94530568EC71E084EFB9
:1014F00092E00E94391060E070E0CB010E949004FD
:101500001B012C0160935A0470935B0480935C046C
:1015100090935D04A70196010E941F0E309355041D
:1015200020935404A50194010E941F0E309353048C
:1015300020935204709351046093500412141304C6
:10154000140415040CF07DC061E08DE00E943706A4
:1015500065E474E088E593E00E94391061E08BE077
:101560000E94370662E089E00E94580584EF92E00D
:101570000E94530563E089E00E945805809154045D
:10158000909155040E94870583EF93E00E945305D4
:1015900080915204909153040E94870583EF93E059
:1015A0000E94530580915004909151040E94870538
:1015B0008BE094E00E94530564ED73E080E090E0DE
:1015C0000E94D40640915A0450915B0460915C04DF
:1015D00070915D04415051096109710940935A04A9
:1015E00050935B0460935C0470935D0480E090E032
:1015F0000E94D80465E070E080E090E00E94D4068C
:1016000000915404109155040130110521F461E05A
:101610008CE00E943706C0915204D0915304CF3120
:10162000D10524F061E08CE00E943706012B09F01F
:1016300046C06E970CF043C060E08CE00E94370615
:101640003EC060E08DE00E94370660E08BE00E94C3
:10165000370664E671E084EF92E00E94391066E498
:1016600074E088E593E00E94391062E089E00E940E
:10167000580584EF92E00E9453058BE094E00E94AD
:10168000530563E089E00E945805809154049091CD
:1016900055040E94870583EF93E00E9453058091D3
:1016A0005204909153040E94870583EF93E00E94B7
:1016B000530580915004909151040E9487058091B8
:1016C0004E0490914F0401968832910529F0909331
:1016D0004F0480934E0409C0A89510924F041092B5
:1016E0004E0488E593E00E94FB050E94A60189CD87
:1016F00085E494E08093620360E972E084EF92E015
:101700000E94391062E089E00E94580582E094E06E
:101710000E94530562E089E00E94580584EF92E040
:101720000E94530548E155E160E070E080E090E000
:101730000E94D80465E070E080E090E00E94D4064A
:1017400080915A0490915B04A0915C04B0915D0477
:10175000892B8A2B8B2B09F467CD6CCD85E494E023
:10176000809362036CE272E084EF92E00E94391091
:1017700062E089E00E94580582E094E00E945305EF
:1017800062E089E00E94580584EF92E00E945305D0
:1017900048E155E160E070E080E090E00E94D8040C
:1017A00065E070E080E090E00E94D40643CD1092A6
:1017B000590410925804ABCDC0915604D0915704EF
:1017C000CE010297039740F488E08093CC0560E057
:1017D00081EC95E00E94C802CE010697049738F488
:1017E0001092CC0560E081EC95E00E94C8022B9736
:1017F0002E9708F040C062E088E00E94580580E023
:1018000094E00E9453056DE074E084EF92E00E9442
:10181000391062E089E00E94580584EF92E00E944E
:10182000530563E089E00E94580586E494E00E9435
:10183000530583EF93E00E94530586E494E00E94F1
:10184000530583EF93E00E94530586E494E00E94E1
:10185000530588E094E00E94530540E050E0BA014F
:1018600080E090E00E94D804A89560EA7FE080E0E4
:1018700090E00E94D40680915604909157044A97B4
:10188000039708F0A5C064E174E084EF92E00E9441
:10189000391062E089E00E94580584EF92E00E94CE
:1018A000530563E089E00E94580586E494E00E94B5
:1018B000530583EF93E00E94530586E494E00E9471
:1018C000530583EF93E00E94530586E494E00E9461
:1018D000530588E094E00E94530570924D04609295
:1018E0004C0480914C0490914D048D3291400CF049
:1018F0006FC0A89562E088E00E94580580E094E0FF
:101900000E94530562E089E00E9458058AE194E054
:101910000E94530580914C0490914D040E948705CC
:1019200080E294E00E945305C0914C04D0914D0494
:10193000CE010297CA9760F461E08DE00E943706FD
:1019400061E08CE00E94370661E08BE00E94370680
:10195000CE01CD978E3E910548F461E08DE00E9466
:10196000370660E08CE00E94370622C0CC32D140BE
:10197000F9F460E08DE00E94370660E08BE00E94A1
:10198000370662E089E00E94580582E094E00E94F8
:10199000530562E089E00E94580584EF92E00E94BE
:1019A000530540E050E0BA0180E090E00E94D80486
:1019B00068EE73E080E090E00E94D40680914C04D1
:1019C00090914D04019690934D0480934C0489CFDF
:1019D000109257041092560462E088E00E94580565
:1019E00080E094E00E94530568EE73E080E090E0B0
:1019F0000E94D40693CC8091BB059091BC050C94B9
:101A0000DC0E109215051092140588EE93E0A0E00C
:101A1000B0E08093160590931705A0931805B09336
:101A2000190524E733E0309313052093120525ECC4
:101A300030E030931F0520931E0524EC30E03093F6
:101A400021052093200520EC30E0309323052093DE
:101A5000220521EC30E0309325052093240522EC6B
:101A600030E0309327052093260526EC30E03093B4
:101A700029052093280510922B0510922C05109211
:101A80002D0510922E051092B2051092B10580938B
:101A9000B3059093B405A093B505B093B60586E859
:101AA00093E09093B0058093AF051092C405109217
:101AB000C30588E993E09093C2058093C10587E24E
:101AC0008093C50584E18093CA0584E08093CB05AB
:101AD0001092CC051092BC051092BB051092BE0569
:101AE0001092BD051092C0051092BF0561E070E034
:101AF00080E090E00E94650F009789F09093BC050C
:101B00008093BB051092BE051092BD052091BF05C4
:101B10003091C005232BC1F4FC01108215C08091C7
:101B2000BB059091BC05009711F00E94DC0E10924D
:101B3000BC051092BB051092C0051092BF05109213
:101B4000BE051092BD0508951092C0051092BF0504
:101B50006AE474E08091BB059091BC050C94391047
:101B6000F999FECF92BD81BDF89A992780B5089565
:101B7000262FF999FECF1FBA92BD81BD20BD0FB6A9
:101B8000F894FA9AF99A0FBE019608952F923F920F
:101B90004F925F926F927F928F929F92AF92BF927D
:101BA000CF92DF92EF92FF920F931F93CF93DF9329
:101BB000CDB7DEB7CA1BDB0B0FB6F894DEBF0FBE86
:101BC000CDBF09942A88398848885F846E847D84D3
:101BD0008C849B84AA84B984C884DF80EE80FD80D5
:101BE0000C811B81AA81B981CE0FD11D0FB6F8944B
:101BF000DEBF0FBECDBFED010895A1E21A2EAA1BD4
:101C0000BB1BFD010DC0AA1FBB1FEE1FFF1FA217AC
:101C1000B307E407F50720F0A21BB30BE40BF50BA9
:101C2000661F771F881F991F1A9469F76095709532
:101C3000809590959B01AC01BD01CF010895052EC3
:101C400097FB1EF400940E94360E57FD07D00E94A9
:101C5000FD0D07FC03D04EF40C94360E50954095C4
:101C6000309521953F4F4F4F5F4F08959095809548
:101C7000709561957F4F8F4F9F4F0895EE0FFF1F17
:101C80000590F491E02D09940F931F93CF93DF9368
:101C90008230910510F482E090E0E091D805F09157
:101CA000D90520E030E0A0E0B0E0309719F14081A4
:101CB00051810281138148175907C8F0841795078D
:101CC00069F4109731F012960C93129713961C93A7
:101CD00027C00093D8051093D90522C021153105DE
:101CE00019F04217530718F49A01BD01EF01DF0103
:101CF000F801DBCF21153105F9F0281B390B243011
:101D0000310580F48A819B816115710521F0FB0109
:101D10009383828304C09093D9058093D805FE01F4
:101D2000329644C0FE01E20FF31F8193919322503B
:101D30003109398328833AC02091D6053091D705DF
:101D4000232B41F420916403309165033093D70530
:101D50002093D6052091620330916303211531054C
:101D600041F42DB73EB74091660350916703241BA1
:101D7000350BE091D605F091D705E217F307A0F4F3
:101D80002E1B3F0B2817390778F0AC014E5F5F4FD1
:101D90002417350748F04E0F5F1F5093D705409327
:101DA000D6058193919302C0E0E0F0E0CF01DF918E
:101DB000CF911F910F910895CF93DF93009709F46E
:101DC00081C0FC01329713821282A091D805B09194
:101DD000D905109781F420813181820F931F2091C2
:101DE000D6053091D7052817390751F5F093D70557
:101DF000E093D60567C0ED0120E030E0CE17DF07A5
:101E000040F44A815B819E0141155105F1F0EA01E0
:101E1000F5CFD383C28340815181840F951FC817AA
:101E2000D90759F488819981840F951F029691836F
:101E300080838A819B81938382832115310529F4D4
:101E4000F093D905E093D8053DC0E901FB83EA830F
:101E500049915991C40FD51FEC17FD0761F480819A
:101E60009181840F951F0296E9019983888382816D
:101E700093819B838A83E0E0F0E012968D919C91A0
:101E80001397009719F0FD01DC01F7CF8D919C911C
:101E900011979D012E5F3F4F820F931F2091D60512
:101EA0003091D7052817390769F4309729F4109233
:101EB000D9051092D80502C013821282B093D705BB
:101EC000A093D605DF91CF910895A0E0B0E0EBE6B6
:101ED000FFE00C94CA0DEC01009721F4CB010E94A5
:101EE000440EB4C0FC01E60FF71F9C0122503109DB
:101EF000E217F30708F4A8C0D9010D911C911197BE
:101F000006171707B0F00530110508F49BC0C8018B
:101F100004978617970708F495C002501109061B0D
:101F2000170B019311936D937C93CF010E94DC0EEC
:101F300089C05B01A01AB10A4C01800E911EA091CC
:101F4000D805B091D905612C712CE12CF12C10979A
:101F500009F446C08D919C911197A815B905B1F56A
:101F60006C0142E0C40ED11CCA14DB0478F14C01B0
:101F70008A189B08640142E0C40ED11C1296BC90E2
:101F800012971396AC91B5E0CB16D10440F0B28213
:101F9000A38391828082D9016D937C9309C00E5FE7
:101FA0001F4F800F911FF90191838083EB2DFA2F32
:101FB000E114F10431F0D7011396FC93EE931297DC
:101FC00041C0F093D905E093D8053CC06816790666
:101FD00008F43C017D0112960D90BC91A02DB7CF65
:101FE0008091D6059091D70588169906E1F466167A
:101FF0007706C8F48091620390916303009741F4DF
:102000008DB79EB74091660350916703841B950B73
:10201000E817F907C8F4F093D705E093D605F9015E
:10202000718360830FC0CB010E94440E7C01009736
:1020300059F0A801BE010E943010CE010E94DC0EB2
:10204000C70104C0CE0102C080E090E0CDB7DEB78A
:10205000EEE00C94E60D81E090E0F8940C944010D2
:10206000FB01DC0102C001900D9241505040D8F7B5
:102070000895FB01DC0101900D920020E1F7089525
:1020800010E0C2E6D0E004C0FE010E943E0E2196A0
:0A209000C336D107C9F7F894FFCF5B
:10209A004241434B55502020202000000000000000
:1020AA000000000000000000000000000000000026
:1020BA000000000000000000000000000000000016
:1020CA000000000000000000000000000000000006
:1020DA0000000000000000000000000000000000F6
:1020EA0000000000000000000000000000000000E6
:1020FA0000000000204F464620202020202000001B
:10210A0000000000000000000000000000000000C5
:10211A0000000000000000000000000000000000B5
:10212A0000000000000000000000000000000000A5
:10213A000000000000000000000000000000000095
:10214A000000000000000000000000000000000085
:10215A000000000000000000204F4E202020202018
:10216A002020000000000000000000000000000025
:10217A000000000000000000000000000000000055
:10218A000000000000000000000000000000000045
:10219A000000000000000000000000000000000035
:1021AA000000000000000000000000000000000025
:1021BA000000000000000000000000004E4841201E
:1021CA0042455020202000000000000000000000CE
:1021DA0000000000000000000000000000000000F5
:1021EA0000000000000000000000000000000000E5
:1021FA0000000000000000000000000000000000D5
:10220A0000000000000000000000000000000000C4
:10221A0000000000000000000000000000000000B4
:10222A004E56205452414920202000000000000050
:10223A000000000000000000000000000000000094
:10224A000000000000000000000000000000000084
:10225A000000000000000000000000000000000074
:10226A000000000000000000000000000000000064
:10227A000000000000000000000000000000000054
:10228A0000000000204F4646202020202020000089
:10229A000000000000000000000000000000000034
:1022AA000000000000000000000000000000000024
:1022BA000000000000000000000000000000000014
:1022CA000000000000000000000000000000000004
:1022DA0000000000000000000000000000000000F4
:1022EA0000000000000000003100000000000000B3
:1022FA0000000000DA0580000000400014005400CD
:10230A000000000037018D00CE008401FF00DD00CF
:10231A00F100000000003D0210026D02E401080213
:10232A00F401E501000000005C038D006D026C02FF
:10233A00202050484F4E4720555620545520444F90
:10234A004E470020205665723A20312E3500202053
:10235A0020534D415254205556204F5A4F4E450056
:10236A0020204661726D204C616E67207669657423
:10237A00203200537461747573203A0054696D6594
:10238A007220203A00476F746F205265736574009B
:10239A002020202020202020202020200052657389
:1023AA006574200074657374200074657374280062
:1023BA002900526573746172742000636865636BE7
:1023CA006F757400477569206461746100524543F2
:0C23DA0045495645003930000D0A00004E
:00000001FF
