:100000000C9471000C9499000C9499000C94990034
:100010000C9499000C9499000C9499000C949900FC
:100020000C9499000C9499000C9499000C949900EC
:100030000C9499000C9499000C9499000C949900DC
:100040000C943C090C9499000C94F6050C94D00582
:100050000C9499000C9499000C9499000C949900BC
:100060000C94F1060C9499002A0144015E01B00140
:10007000BE01D801FE0124026A02A40200000000B1
:10008000240027002A0000000000250028002B0083
:1000900000000000230026002900040404040404D6
:1000A0000404020202020202030303030303010227
:1000B00004081020408001020408102001020408F6
:1000C00010200000000800020100000304070000E7
:1000D0000000000000002020200020202000EC0F65
:1000E000E60F11241FBECFEFD8E0DEBFCDBF26E064
:1000F000A2E8B4E001C01D92A431B207E1F714E018
:10010000A0E0B1E0E6E9F6E202C005900D92A23867
:10011000B107D9F710E0C0E7D0E004C02197FE0195
:100120000E942D11CF36D107C9F70E9486090C9481
:100130003E130C940000833081F028F4813099F054
:100140008230A1F008958730A9F08830B9F084306A
:10015000D1F4809180008F7D03C0809180008F77E3
:1001600080938000089584B58F7702C084B58F7D19
:1001700084BD08958091B0008F7703C08091B00056
:100180008F7D8093B00008959F92AF92BF92CF92DF
:10019000DF92EF92FF920F931F93CF93DF9300D0E4
:1001A000CDB7DEB7962EF42E97FF03C091958195BB
:1001B00091092AE030E0B9010E94D8108A83CB016E
:1001C000B9010E94D8108983CE0101965C01192DD6
:1001D00000E0C12CD12CEE24E394EF0CD501ED917D
:1001E0005D01E11126C0011124C0C114D10409F53B
:1001F0004F2D692D8091F9059091FA050E94C20654
:100200006AED70E08091F9059091FA050E94F3087B
:100210004E2D692D8091F9059091FA050E94C20634
:1002200066ED70E08091F9059091FA050E94F3085F
:10023000DEC18E2F90E08A30910508F0D7C1FC0115
:10024000EC5CFF4F8091F9059091FA054F2D612FDD
:100250000C942D110E94C2068091F9059091FA0527
:10026000DC01ED91FC910190F081E02D60E00995B9
:100270008091F9059091FA05DC01ED91FC910190D6
:10028000F081E02D61E03FC10E94C2068091F90536
:100290009091FA05DC01ED91FC910190F081E02D47
:1002A0006EEF09958091F9059091FA05DC01ED91C9
:1002B000FC910190F081E02D6EEFDFC00E94C2063C
:1002C0008091F9059091FA05DC01ED91FC91019086
:1002D000F081E02D63E009958091F9059091FA0590
:1002E000DC01ED91FC910190F081E02D66E0099533
:1002F0008091F9059091FA05DC01ED91FC91019056
:10030000F081E02D62E009954E2D612F8091F90575
:100310009091FA050E94C2068091F9059091FA0524
:10032000DC01ED91FC910190F081E02D60E00995F8
:100330008091F9059091FA05DC01ED91FC91019015
:10034000F081E02D64E009958091F9059091FA051E
:10035000DC01ED91FC910190F081E02D64E045C15C
:100360000E94C2068091F9059091FA05DC01ED9199
:10037000FC910190F081E02D63E0F3C00E94C20681
:100380008091F9059091FA05DC01ED91FC910190C5
:10039000F081E02D60E009958091F9059091FA05D2
:1003A000DC01ED91FC910190F081E02D64E065C0ED
:1003B0000E94C2068091F9059091FA05DC01ED9149
:1003C000FC910190F081E02D60E009958091F905A4
:1003D0009091FA05DC01ED91FC910190F081E02D06
:1003E00066E009958091F9059091FA05DC01ED919F
:1003F000FC910190F081E02D65E0CBC00E94C20627
:100400008091F9059091FA05DC01ED91FC91019044
:10041000F081E02D60E009958091F9059091FA0551
:10042000DC01ED91FC910190F081E02D66E00995F1
:100430008091F9059091FA05DC01ED91FC91019014
:10044000F081E02D65E06BC00E94C2068091F90545
:100450009091FA05DC01ED91FC910190F081E02D85
:1004600061E009958091F9059091FA05DC01ED9123
:10047000FC910190F081E02D61E009958091F905F2
:100480009091FA05DC01ED91FC910190F081E02D55
:1004900062E009954E2D612F8091F9059091FA0542
:1004A0000E94C2068091F9059091FA05DC01ED9158
:1004B000FC910190F081E02D6EEF09958091F90596
:1004C0009091FA05DC01ED91FC910190F081E02D15
:1004D0006EEF7FC00E94C2068091F9059091FA05E7
:1004E000DC01ED91FC910190F081E02D60E0099537
:1004F0008091F9059091FA05DC01ED91FC91019054
:10050000F081E02D66E009958091F9059091FA055A
:10051000DC01ED91FC910190F081E02D62E0099504
:100520004E2D612F8091F9059091FA050E94C20627
:100530008091F9059091FA05DC01ED91FC91019013
:10054000F081E02D60E039C00E94C2068091F9057B
:100550009091FA05DC01ED91FC910190F081E02D84
:1005600060E009958091F9059091FA05DC01ED9123
:10057000FC910190F081E02D66E009958091F905EC
:100580009091FA05DC01ED91FC910190F081E02D54
:1005900062E009954E2D612F8091F9059091FA0541
:1005A0000E94C2068091F9059091FA05DC01ED9157
:1005B000FC910190F081E02D67E009958091F905AB
:1005C0009091FA05DC01ED91FC910190F081E02D14
:1005D00064E009958091F9059091FA05DC01ED91AF
:1005E000FC910190F081E02D62E0099501E0BFEF00
:1005F000CB1ADB0A1D5F82E0C816D10409F0EECDEC
:100600000F900F90DF91CF911F910F91FF90EF907E
:10061000DF90CF90BF90AF909F900895CF93DF93DE
:10062000BC018AE495E00E94BB05EC016FE774E031
:100630008AE495E00E94BB058C0F9D1FDF91CF914E
:100640000895CF93DF93282F30E0F901EE53FF4F49
:100650008491F901E255FF4FD491F901E656FF4F1D
:10066000C491CC2391F081110E949B00EC2FF0E00B
:10067000EE0FFF1FE057FF4FA591B491EC91ED23D2
:1006800081E090E021F480E002C080E090E0DF9122
:10069000CF9108951F93CF93DF93282F30E0F90176
:1006A000EE53FF4F8491F901E255FF4FD491F901C8
:1006B000E656FF4FC491CC23C1F0162F81110E9442
:1006C0009B00EC2FF0E0EE0FFF1FEA57FF4FA591C4
:1006D000B4919FB7F894111104C08C91D095D82390
:1006E00002C0EC91DE2BDC939FBFDF91CF911F9175
:1006F0000895CF93DF9390E0FC01E255FF4F2491E2
:10070000FC01E656FF4F8491882361F190E0880F49
:10071000991FFC01E458FF4FC591D491FC01EA57A1
:10072000FF4FA591B491611109C09FB7F8948881DA
:10073000209582238883EC912E230BC0623061F4D4
:100740009FB7F8948881322F309583238883EC916A
:100750002E2B2C939FBF06C08FB7F894E8812E2BC9
:1007600028838FBFDF91CF9108958F929F92AF9290
:10077000BF92CF92DF92EF92FF926B017C010E94B9
:1007800017094B015C01C114D104E104F104F1F03B
:100790000E941709DC01CB0188199909AA09BB0934
:1007A000883E9340A105B10570F321E0C21AD1083B
:1007B000E108F10888EE880E83E0981EA11CB11CA8
:1007C000C114D104E104F10419F7DDCFFF90EF90DB
:1007D000DF90CF90BF90AF909F908F900895CF9271
:1007E000DF92EF92FF920F931F93CF93DF936C01F1
:1007F0007A018B01C0E0D0E0CE15DF0581F0D80191
:100800006D918D01D601ED91FC910190F081E02D6B
:10081000C6010995892B11F02196EECF7E01C70103
:10082000DF91CF911F910F91FF90EF90DF90CF90CC
:100830000895FC01538D448D252F30E0842F90E0E6
:10084000821B930B541710F0CF96089501970895CB
:10085000FC01918D828D981761F0828DDF01A80FC8
:10086000B11D5D968C91928D9F5F9F73928F90E0EA
:1008700008958FEF9FEF0895FC01918D828D981759
:1008800031F0828DE80FF11D858D90E008958FEF96
:100890009FEF0895FC01918D228D892F90E0805C5F
:1008A0009F4F821B91098F73992708958AE495E0E1
:1008B0000E944A0421E0892B09F420E0822F089548
:1008C000FC01848DDF01A80FB11DA35ABF4F2C91ED
:1008D000848D90E001968F739927848FA689B789BC
:1008E0002C93A089B1898C91837080648C93938DB3
:1008F000848D981306C00288F389E02D80818F7D56
:1009000080830895EF92FF920F931F93CF93DF930D
:10091000EC0181E0888F9B8D8C8D981305C0E88950
:10092000F989808185FD26C0F62E0B8D10E00F5FC2
:100930001F4F0F731127E02E8C8DE8120CC00FB6DD
:1009400007FCFACFE889F989808185FFF5CFCE01D0
:100950000E946004F1CF8B8DFE01E80FF11DE35A78
:10096000FF4FF0829FB7F8940B8FEA89FB89808153
:1009700080620AC09FB7F894EE89FF896083E88996
:10098000F98980818370806480839FBF81E090E0DB
:10099000DF91CF911F910F91FF90EF900895CF932A
:1009A000DF93EC01888D8823C9F0EA89FB89808177
:1009B00085FD05C0A889B9898C9186FD0FC00FB649
:1009C00007FCF5CF808185FFF2CFA889B9898C918A
:1009D00085FFEDCFCE010E946004E7CFDF91CF917C
:1009E000089580E090E0892B29F00E94560481113F
:1009F0000C940000089585ED8093BC008091BC00AC
:100A000084FDFCCF1092450508954091D604262F11
:100A100030E0240F311D21323105DCF420914505F1
:100A20002430C9F4FC0180E090E0861758F430913E
:100A3000D6042191DC01AA54BB4FA30FB11D2C9306
:100A40000196F3CF8091D604680F6093D60480E0BE
:100A5000089581E0089582E0089508950895089525
:100A6000E091490580914805E81730F4F0E0EA5636
:100A7000FB4F808190E008958FEF9FEF0895909154
:100A8000490580914805981750F4E92FF0E0EA569F
:100A9000FB4F208130E09F5F9093490502C02FEF0C
:100AA0003FEFC90108958091480590E020914905E4
:100AB000821B91090895CF92DF92EF92FF920F93DC
:100AC0001F93CF93DF937C01CB018A0120911D05F9
:100AD000222389F0EB016B01C40ED51ECC15DD0578
:100AE00069F06991D701ED91FC910190F081E02DC1
:100AF000C7010995F3CF642F0E940505C801DF9156
:100B0000CF911F910F91FF90EF90DF90CF900895BC
:100B1000CF93DF931F92CDB7DEB7698320911D0578
:100B20002223D1F020914605203240F021E030E030
:100B3000FC013383228380E090E015C0809147055B
:100B4000E82FF0E0E25EFA4F998190838F5F809307
:100B500047058093460505C061E0CE0101960E94DD
:100B6000050581E090E00F90DF91CF910895089501
:100B700080E090E008956115710579F0FB01019026
:100B80000020E9F73197AF01461B570BDC01ED91CF
:100B9000FC910280F381E02D099480E090E00895BB
:100BA0001F920F920FB60F9211242F933F934F93E2
:100BB0005F936F937F938F939F93AF93BF93EF93C5
:100BC000FF938AE495E00E946004FF91EF91BF914A
:100BD000AF919F918F917F916F915F914F913F91D5
:100BE0002F910F900FBE0F901F9018951F920F928C
:100BF0000FB60F9211242F938F939F93EF93FF9330
:100C0000E0915A05F0915B058081E0916005F091DB
:100C1000610582FD12C09081809163058F5F8F73A3
:100C200020916405821751F0E0916305F0E0E65BE6
:100C3000FA4F958F8093630501C08081FF91EF91FA
:100C40009F918F912F910F900FBE0F901F9018952D
:100C5000CF93FC01C48121E020931D05C0933E0584
:100C600010924705109246058385682B87EE95E024
:100C70000E94880590914605913208F045C0809108
:100C800045058111FCCF82E08093450581E080938A
:100C900044058FEF80931C0510921B0590931A0555
:100CA000AEE1B5E0EAEFF4E080E0981721F02D9195
:100CB00021938F5FFACF1092F9048091F904CC0F41
:100CC000C82BC093F90480914305813061F41092E0
:100CD00043058091F9048093BB008091BC0083FDA3
:100CE000F8CF85EC01C085EE8093BC00809145056E
:100CF0008230E1F380911C058F3F31F080911C051B
:100D0000803211F080911C05109247051092460523
:100D100010921D05CF9108950F931F93CF938C01CF
:100D2000C62F0E9428066C2F6460C8010E94280606
:100D30006C2F6B7FC8010E94280683EC90E001971E
:100D4000F1F7CF911F910F9108950F931F93CF93B8
:100D5000DF938C01C62FD42F607F642B0E948C06FA
:100D600080E1C89FB00111246D2BC801DF91CF91A4
:100D70001F910F910C948C0641E00E94A50681E022
:100D800090E00895CF93DF93CDB7DEB728970FB6E5
:100D9000F894DEBF0FBECDBF9C0188E0E8EAF3E027
:100DA000DE01119601900D928A95E1F7F901808597
:100DB000841710F44FEF480FFE013196E40FF11D38
:100DC000E40FF11D9081690F606840E0C901289629
:100DD0000FB6F894DEBF0FBECDBFDF91CF910C945C
:100DE000A5061F920F920FB60F9211242F933F93D7
:100DF0004F935F936F937F938F939F93AF93BF9323
:100E0000EF93FF938091B900887F803609F49CC0EE
:100E100068F5883209F45BC090F4803109F454C05D
:100E200038F4882309F4F6C0883009F44DC0F6C0C0
:100E3000883109F44CC0803209F45DC0EFC08034C1
:100E400009F468C048F4803309F455C0883309F0C8
:100E5000E5C080931C05D8C0803509F44FC08835A3
:100E600009F45DC0883409F0D9C0D6C0883909F4C6
:100E7000C7C0A8F4883709F467C038F4883609F485
:100E800063C0803709F460C0C9C0883809F4B8C0AD
:100E9000803909F45FC0803809F0C0C05BC0803B76
:100EA00009F486C038F4803A09F466C0883A09F437
:100EB0007FC0B4C0803C09F4A7C0883C09F4A4C03A
:100EC000883B09F48AC0AAC08091F90410C09091AF
:100ED0001B0580911A05981770F5E0911B0581E0BC
:100EE0008E0F80931B05F0E0E650FB4F80818093CE
:100EF000BB0085EC86C080931C058EC0E0911B056D
:100F000081E08E0F80931B058091BB00F0E0E650DE
:100F1000FB4F808390911B0580911A056EC0E09174
:100F20001B0581E08E0F80931B058091BB00F0E0D4
:100F3000E650FB4F80838091440581116DC081E0B4
:100F40008093430584EA61C083E080934505109255
:100F5000F804CFCF8091F804803208F051C0E091BE
:100F6000F80481E08E0F8093F8048091BB00F0E0DC
:100F7000E852FB4F8083BDCF85EC8093BC0010927C
:100F800045058091F804803230F4E091F804F0E0F7
:100F9000E852FB4F10826091F80470E0E0913F0549
:100FA000F091400588ED94E009951092F80436C060
:100FB00084E0809345051092D7041092D604E09106
:100FC0004105F091420509958091D604811105C033
:100FD00081E08093D6041092B604E091D70481E0BA
:100FE0008E0F8093D704F0E0EA54FB4F808180930A
:100FF000BB009091D7048091D604981708F479CF5C
:1010000085E88093BC000AC085EC8093BC001092F8
:10101000450504C010921C050E94FB04FF91EF914E
:10102000BF91AF919F918F917F916F915F914F9100
:101030003F912F910F900FBE0F901F901895BC01FC
:101040008BEF95E00C94BB05109249051092480572
:1010500010924705109246051092450581E0809355
:1010600044051092430561E082E10E944A0361E079
:1010700083E10E944A03E9EBF0E080818E7F808368
:1010800080818D7F808388E48093B80085E480939D
:10109000BC008DE295E090934205809341058EE27D
:1010A00095E09093400580933F050895EF92FF925D
:1010B0000F931F93CF93DF938C017A01677088E0C1
:1010C000689FB0011124606440E0C8010E94A50639
:1010D000E701A8E0EA0EF11C6991D801ED91FC91BD
:1010E0000190F081E02DC8010995CE15DF05A1F72B
:1010F000DF91CF911F910F91FF90EF9008958F9204
:101100009F92AF92BF92CF92DF92EF92FF92CF93D6
:10111000DF93CDB7DEB7A1970FB6F894DEBF0FBE51
:10112000CDBF6C01990FEE08FF08F7FE2CC041E01F
:101130006DE28BEF95E00E94A50622273327A901D7
:101140002C193D094E095F0919A2CE0181967C0137
:101150009AE0892E912CA12CB12CCA01B901A501CC
:1011600094010E94EC10605DF70162937F012115EC
:1011700031054105510589F7BF018BEF95E00E94CC
:10118000BB0501961FC0A701960119A2CE01819649
:101190007C018AE0882E912CA12CB12CCA01B901C6
:1011A000A50194010E94EC10605DF70162937F013C
:1011B000211531054105510589F7BF018BEF95E0F8
:1011C0000E94BB05A1960FB6F894DEBF0FBECDBF3F
:1011D000DF91CF91FF90EF90DF90CF90BF90AF90D5
:1011E0009F908F900895EF92FF920F931F93CF934C
:1011F000DF938C017B01C0E0D0E0F701EC0FFD1F15
:101200006491662361F0D801ED91FC910190F08129
:10121000E02DC8010995892B11F02196EECFCE0162
:10122000DF91CF911F910F91FF90EF9008953FB7FD
:10123000F89480910C0690910D06A0910E06B09145
:101240000F0626B5A89B05C02F3F19F00196A11DDA
:10125000B11D3FBFBA2FA92F982F8827820F911D4C
:10126000A11DB11DBC01CD0142E0660F771F881F93
:10127000991F4A95D1F708951F920F920FB60F92BA
:1012800011242F933F938F939F93AF93BF9380919C
:10129000080690910906A0910A06B0910B063091BC
:1012A000070623E0230F2D3720F40196A11DB11D61
:1012B00005C026E8230F0296A11DB11D2093070645
:1012C0008093080690930906A0930A06B0930B0634
:1012D00080910C0690910D06A0910E06B0910F061C
:1012E0000196A11DB11D80930C0690930D06A0934D
:1012F0000E06B0930F06BF91AF919F918F913F91D2
:101300002F910F900FBE0F901F901895CF93DF93E2
:1013100000D000D0CDB7DEB7789484B5826084BDAC
:1013200084B5816084BD85B5826085BD85B58160E9
:1013300085BD80916E00816080936E001092810067
:101340008091810082608093810080918100816022
:1013500080938100809180008160809380008091E3
:10136000B10084608093B1008091B000816080936F
:10137000B00080917A00846080937A0080917A0036
:10138000826080937A0080917A00816080937A00F5
:1013900080917A00806880937A001092C100E09179
:1013A0005A05F0915B0582E08083E0915605F0914B
:1013B00057051082E0915805F091590580E180832E
:1013C00010926205E0915E05F0915F0586E08083F2
:1013D000E0915C05F0915D05808180618083E09102
:1013E0005C05F0915D05808188608083E0915C05FB
:1013F000F0915D05808180688083E0915C05F091CB
:101400005D0580818F7D80830E94240848E351E040
:1014100060E08091F9059091FA050E94560840E33A
:1014200051E061E08091F9059091FA050E9456081B
:1014300048E251E062E08091F9059091FA050E943E
:10144000560840E251E063E08091F9059091FA0579
:101450000E94560848E151E064E08091F9059091BE
:10146000FA050E94560840E151E065E08091F905D7
:101470009091FA050E94560848E051E066E080919C
:10148000F9059091FA050E94560840E051E067E0A6
:101490008091F9059091FA050E9456080E9424084F
:1014A0001092000680910506823018F098E0909323
:1014B00000068093030662E370E080E090E00E9403
:1014C000B503609106068BEF95E00E94280668EE52
:1014D00073E080E090E00E94B50360E38BEF95E05D
:1014E0000E948C068BE496E40197F1F760E38BEFA2
:1014F00095E00E948C068BE496E40197F1F760E397
:101500008BEF95E00E948C0683E592E00197F1F75E
:1015100060E28BEF95E00E948C06609100066062AD
:1015200040E08BEF95E00E94A50684E080930106E1
:1015300040E06CE08BEF95E00E94A50640E061E0A2
:101540008BEF95E00E94A5068BE39FE10197F1F7F1
:1015500082E08093020640E066E08BEF95E00E9417
:10156000A50640E062E08BEF95E00E94A5068BE3C4
:101570009FE10197F1F788E08093060660E08BEF2A
:1015800095E00E94280680EE93E00E941F0842E04A
:1015900060E08BEF95E00E94C20683EF93E00E942B
:1015A0001F0868EE73E080E090E00E94B50340E021
:1015B00061E08BEF95E00E94A5068BE39FE1019728
:1015C000F1F760E471E084E393E00E94371362E096
:1015D0008FE00E94790362E080E10E94790361E07C
:1015E0008FE00E944A0361E080E10E944A0362E0CA
:1015F0008EE00E94790362E081E10E94790361E05C
:101600008BE00E94790360E08BE00E944A0361E076
:101610008CE00E94790360E08CE00E944A0361E064
:101620008DE00E94790360E08DE00E944A0399E218
:1016300088E10FB6F894A895809360000FBE909350
:10164000600080E1C82E8EE0D82EE12CF12C2224FF
:101650002394312C2CE3822E912CA12CB12CA89513
:101660008091920490919304A0919404B091950478
:10167000892B8A2B8B2B61F48FE00E942103892B0D
:1016800009F4E8C280E10E942103892B09F4E9C230
:101690008FE00E942103892B09F078C080E10E942D
:1016A0002103892B09F404C371C042E069E08BEF88
:1016B00095E00E94C20684E294E00E941F0842E086
:1016C00068E08BEF95E00E94C2068EEF93E00E94E7
:1016D0001F0880919004909191040E947F08A89522
:1016E0008FE00E942103892B09F0E7C280E10E946C
:1016F0002103892B09F0E1C280918E0490918F041F
:1017000001969A83898390938F0480938E046AEF65
:1017100070E080E090E00E94B50389819A814E9745
:1017200021F542E068E08BEF95E00E94C20682E27C
:1017300094E00E941F086EE474E084E393E00E944A
:10174000371342E069E08BEF95E00E94C20684E324
:1017500093E00E941F08109292041092930410923A
:101760009404109295040C94000080919004909140
:101770009104019690939104809390048091900439
:10178000909191044F970CF490CFA8958EE00E9411
:101790002103892B09F08EC06AEF70E080E090E0B1
:1017A0000E94B5038EE00E942103892B09F082C0BC
:1017B00042E069E08BEF95E00E94C20686E294E089
:1017C0000E941F0867E574E084E393E00E943713EA
:1017D00042E069E08BEF95E00E94C20684E393E06B
:1017E0000E941F0887E594E00E940E0362E370E008
:1017F00080E090E00E94B50330928304209282043E
:101800008091820490918304893592400CF042C00B
:10181000A89542E069E08BEF95E00E94C20684E261
:1018200094E00E941F0842E069E08BEF95E00E947F
:10183000C20680E694E00E941F088EE00E94210309
:10184000892BC9F464ED73E080E090E00E94B50359
:101850008091920490919304A0919404B091950486
:101860000197A109B1098093920490939304A093E6
:101870009404B09395048EE00E942103019751F0E7
:1018800080918204909183040196909383048093C5
:101890008204B6CF42E069E08BEF95E00E94C20679
:1018A00082E294E00E941F0868E072E084E393E023
:1018B0000E94371381E10E942103892B09F08EC019
:1018C0006AEF70E080E090E00E94B50381E10E9441
:1018D0002103892B09F082C042E069E08BEF95E09B
:1018E0000E94C20686E294E00E941F0869E674E046
:1018F00084E393E00E94371342E069E08BEF95E0C8
:101900000E94C20684E393E00E941F0889E694E0E7
:101910000E940E0362E370E080E090E00E94B50355
:1019200030928304209282048091820490918304F7
:10193000893592400CF042C0A89542E069E08BEFF7
:1019400095E00E94C20684E294E00E941F0842E0F3
:1019500069E08BEF95E00E94C20681E794E00E9467
:101960001F0881E10E942103892BC9F464ED73E013
:1019700080E090E00E94B5038091920490919304DE
:10198000A0919404B09195040197A109B1098093A5
:10199000920490939304A0939404B093950481E1EE
:1019A0000E942103019751F0809182049091830459
:1019B00001969093830480938204B6CF42E069E05D
:1019C0008BEF95E00E94C20682E294E00E941F081D
:1019D00068E072E084E393E00E9437134090920441
:1019E000509093046090940470909504C301B201E8
:1019F000A50194010E940E1130938D0420938C0454
:101A0000C301B201A70196010E940E11309389040F
:101A100020938804A50194010E940E11309387043D
:101A20002093860470938B0460938A041414150425
:101A3000160417040CF093C041E060E08BEF95E0D2
:101A40000E94C20680E194E00E941F0840E067E027
:101A500080918C0490918D040E94C40041E06DE05F
:101A60008BEF95E00E94C20688E194E00E941F0877
:101A700080918A0490918B040E947F088DE294E00B
:101A80000E941F0861E08DE00E944A0361E08BE044
:101A90000E944A0342E060E08BEF95E00E94C2069C
:101AA0008AE194E00E941F0842E069E08BEF95E034
:101AB0000E94C20684E393E00E941F0843E060E0B6
:101AC0008BEF95E00E94C2068FE294E00E941F080F
:101AD00043E067E08BEF95E00E94C20687E394E065
:101AE0000E941F0864ED73E080E090E00E94B5035F
:101AF0008091920490919304A0919404B0919504E4
:101B00000197A109B1098093920490939304A09343
:101B10009404B093950400918804109189040130D5
:101B2000110521F461E08CE00E944A038091860453
:101B3000909187049A8389834F9724F061E08CE029
:101B40000E944A03012B09F06CC089819A814E974B
:101B50000CF067C060E08CE00E944A0362C060E065
:101B60008DE00E944A0360E08BE00E944A0364EA31
:101B700071E084E393E00E9437136DE774E088E935
:101B800093E00E94371341E060E08BEF95E00E9404
:101B9000C20680E194E00E941F0840E067E0809167
:101BA0008C0490918D040E94C40041E06DE08BEFA5
:101BB00095E00E94C20688E194E00E941F0880918F
:101BC0008A0490918B040E947F088DE294E00E9429
:101BD0001F0842E060E08BEF95E00E94C2068AE1B8
:101BE00094E00E941F0842E069E08BEF95E00E94BC
:101BF000C20684E393E00E941F0843E060E08BEF9D
:101C000095E00E94C2068FE294E00E941F0843E024
:101C100067E08BEF95E00E94C20687E394E00E94A4
:101C20001F08809184049091850401968832910563
:101C300029F0909385048093840409C0A89510929C
:101C400085041092840488E993E00E940E030E94A8
:101C5000F10405CD8CE794E08093A20360ED72E07F
:101C600006C08CE794E08093A2036CE672E084E304
:101C700093E00E94371342E069E08BEF95E00E9409
:101C8000C20684E294E00E941F0842E069E08BEF04
:101C900095E00E94C20684E393E00E941F08C09270
:101CA0009204D0929304E0929404F0929504F0CCC4
:101CB000109291041092900461CD80918E049091C5
:101CC0008F049A8389830297039740F488E0809376
:101CD000060660E08BEF95E00E94280689819A81D4
:101CE0000697049738F41092060660E08BEF95E0B3
:101CF0000E94280689819A810B970E9708F06DC083
:101D000069E074E084E393E00E94371341E060E00F
:101D10008BEF95E00E94C20680E194E00E941F08CC
:101D200040E067E080918C0490918D040E94C40093
:101D300041E06DE08BEF95E00E94C20688E194E0FF
:101D40000E941F0880918A0490918B040E947F0852
:101D50008DE294E00E941F0842E060E08BEF95E086
:101D60000E94C2068AE194E00E941F0842E068E0F7
:101D70008BEF95E00E94C20682E294E00E941F0869
:101D800042E069E08BEF95E00E94C20684E393E0B5
:101D90000E941F0843E060E08BEF95E00E94C206BE
:101DA0008FE294E00E941F0843E067E08BEF95E02C
:101DB0000E94C20687E394E00E941F0810929204DA
:101DC000109293041092940410929504A89560EADE
:101DD0007FE080E090E00E94B50380918E049091B6
:101DE0008F044A97039708F0DCC063E474E084E34F
:101DF00093E00E94371342E069E08BEF95E00E9488
:101E0000C20684E393E00E941F083092830420926C
:101E1000820440908204509083049DE2491691E030
:101E200059060CF0BEC0A895052C000C6608770872
:101E3000409292045092930460929404709295049C
:101E4000C301B201A50194010E940E1129833A83B6
:101E50004B835C8389819A8190938D0480938C0459
:101E6000C301B201A70196010E940E1130938904AB
:101E700020938804A50194010E940E1130938704D9
:101E80002093860470938B0460938A0440E067E09B
:101E900089819A810E94C40041E06DE08BEF95E05A
:101EA0000E94C20688E194E00E941F0880918A0483
:101EB00090918B040E947F088DE294E00E941F089D
:101EC00042E068E08BEF95E00E94C20682E294E077
:101ED0000E941F0842E069E08BEF95E00E94C20675
:101EE00089E494E00E941F08809182049091830409
:101EF0009A8389830297CA9760F461E08DE00E941B
:101F00004A0361E08CE00E944A0361E08BE00E949A
:101F10004A0389819A81CD978E3E910548F461E00C
:101F20008DE00E944A0360E08CE00E944A0329C0D1
:101F300089819A818C32914021F560E08DE00E9488
:101F40004A0360E08BE00E944A0342E069E08BEFC5
:101F500095E00E94C20684E294E00E941F0842E0DD
:101F600069E08BEF95E00E94C20684E393E00E9453
:101F70001F081092920410929304109294041092ED
:101F8000950468EE73E080E090E00E94B5038091D4
:101F90008204909183040196909383048093820439
:101FA00038CF10928F0410928E0442E068E08BEFDD
:101FB00095E00E94C20682E294E00E941F0864EF4E
:101FC00071E080E090E00E94B503DFCB8091F305E3
:101FD0009091F4050C94DF1110924D0510924C0570
:101FE00088EE93E0A0E0B0E080934E0590934F051B
:101FF000A0935005B093510524EB33E030934B058B
:1020000020934A0525EC30E0309357052093560580
:1020100024EC30E0309359052093580520EC30E053
:1020200030935B0520935A0521EC30E030935D0539
:1020300020935C0522EC30E030935F0520935E0531
:1020400026EC30E030936105209360051092630523
:102050001092640510926505109266051092EA05CB
:102060001092E9058093EB059093EC05A093ED05A4
:10207000B093EE0586EC93E09093E8058093E70536
:102080001092FE051092FD0588ED93E09093FC05FB
:102090008093FB0587E28093FF0584E1809304062B
:1020A00084E080930506109206068BEF95E09093EE
:1020B000FA058093F9051092F4051092F305109239
:1020C000F6051092F5051092F8051092F70561E0FB
:1020D00070E080E090E00E946812009789F0909391
:1020E000F4058093F3051092F6051092F505209102
:1020F000F7053091F805232BC1F4FC01108215C0BF
:102100008091F3059091F405009711F00E94DF1182
:102110001092F4051092F3051092F8051092F7054D
:102120001092F6051092F50508951092F805109298
:10213000F70561E874E08091F3059091F4050C9443
:1021400037132F923F924F925F926F927F928F92AE
:102150009F92AF92BF92CF92DF92EF92FF920F9336
:102160001F93CF93DF93CDB7DEB7CA1BDB0B0FB640
:10217000F894DEBF0FBECDBF09942A8839884888FD
:102180005F846E847D848C849B84AA84B984C88493
:10219000DF80EE80FD800C811B81AA81B981CE0F8A
:1021A000D11D0FB6F894DEBF0FBECDBFED0108956F
:1021B00097FB072E16F4009407D077FD09D00E94F4
:1021C000331107FC05D03EF4909581959F4F0895FB
:1021D000709561957F4F0895A1E21A2EAA1BBB1B33
:1021E000FD010DC0AA1FBB1FEE1FFF1FA217B307E3
:1021F000E407F50720F0A21BB30BE40BF50B661FF9
:10220000771F881F991F1A9469F7609570958095BC
:1022100090959B01AC01BD01CF010895052E97FB60
:102220001EF400940E94251157FD07D00E94EC1067
:1022300007FC03D04EF40C94251150954095309531
:1022400021953F4F4F4F5F4F089590958095709522
:1022500061957F4F8F4F9F4F0895EE0FFF1F0590A1
:10226000F491E02D0994AA1BBB1B51E107C0AA1FE2
:10227000BB1FA617B70710F0A61BB70B881F991F27
:102280005A95A9F780959095BC01CD0108950F93BB
:102290001F93CF93DF938230910510F482E090E09A
:1022A000E0911206F091130620E030E0A0E0B0E0EB
:1022B000309719F1408151810281138148175907E4
:1022C000C8F08417950769F4109731F012960C93B3
:1022D000129713961C9327C00093120610931306AF
:1022E00022C02115310519F04217530718F49A013D
:1022F000BD01EF01DF01F801DBCF21153105F9F058
:10230000281B390B2430310580F48A819B816115AB
:10231000710521F0FB019383828304C0909313061F
:1023200080931206FE01329644C0FE01E20FF31FB5
:102330008193919322503109398328833AC02091A7
:10234000100630911106232B41F42091A403309103
:10235000A50330931106209310062091A20330911B
:10236000A3032115310541F42DB73EB74091A603D3
:102370005091A703241B350BE0911006F091110634
:10238000E217F307A0F42E1B3F0B2817390778F04C
:10239000AC014E5F5F4F2417350748F04E0F5F1FAB
:1023A00050931106409310068193919302C0E0E090
:1023B000F0E0CF01DF91CF911F910F910895CF935E
:1023C000DF93009709F481C0FC01329713821282D7
:1023D000A0911206B0911306109781F420813181EB
:1023E000820F931F2091100630911106281739078C
:1023F00051F5F0931106E093100667C0ED0120E05F
:1024000030E0CE17DF0740F44A815B819E01411521
:102410005105F1F0EA01F5CFD383C28340815181A8
:10242000840F951FC817D90759F488819981840FA3
:10243000951F0296918380838A819B8193838283F7
:102440002115310529F4F0931306E09312063DC0DF
:10245000E901FB83EA8349915991C40FD51FEC1719
:10246000FD0761F480819181840F951F0296E90137
:1024700099838883828193819B838A83E0E0F0E063
:1024800012968D919C911397009719F0FD01DC0134
:10249000F7CF8D919C9111979D012E5F3F4F820F39
:1024A000931F20911006309111062817390769F4FF
:1024B000309729F4109213061092120602C013826C
:1024C0001282B0931106A0931006DF91CF91089568
:1024D000A0E0B0E0EEE6F2E10C94A510EC0100976C
:1024E00021F4CB010E944711B4C0FC01E60FF71F95
:1024F0009C0122503109E217F30708F4A8C0D90162
:102500000D911C91119706171707B0F005301105B2
:1025100008F49BC0C80104978617970708F495C074
:1025200002501109061B170B019311936D937C93B5
:10253000CF010E94DF1189C05B01A01AB10A4C01D2
:10254000800E911EA0911206B0911306612C712C81
:10255000E12CF12C109709F446C08D919C911197B4
:10256000A815B905B1F56C0142E0C40ED11CCA141E
:10257000DB0478F14C018A189B08640142E0C40E28
:10258000D11C1296BC9012971396AC91B5E0CB1665
:10259000D10440F0B282A38391828082D9016D93ED
:1025A0007C9309C00E5F1F4F800F911FF90191832B
:1025B0008083EB2DFA2FE114F10431F0D70113964B
:1025C000FC93EE93129741C0F0931306E09312062A
:1025D0003CC06816790608F43C017D0112960D9006
:1025E000BC91A02DB7CF809110069091110688164E
:1025F0009906E1F466167706C8F48091A2039091DB
:10260000A303009741F48DB79EB74091A603509164
:10261000A703841B950BE817F907C8F4F09311067C
:10262000E0931006F901718360830FC0CB010E9413
:1026300047117C01009759F0A801BE010E942E139A
:10264000CE010E94DF11C70104C0CE0102C080E0AC
:1026500090E0CDB7DEB7EEE00C94C110FB01DC01D9
:1026600002C001900D9241505040D8F70895FB01EF
:10267000DC0101900D920020E1F7089510E0C0E721
:10268000D0E004C0FE010E942D112196C137D10770
:06269000C9F7F894FFCF2A
:10269600000000000000070F1F1F1F0000001F1F83
:1026A6001E1C00000000181C00000000001F1F1F59
:1026B6000F070000000003071C1E1E1E1E1E1E1C08
:1026C6001F1F1F0000000000070F0F0F0F0F0F073F
:1026D6004261636B7570200000000000000000007E
:1026E60000000000000000000000000000000000E4
:1026F60000000000000000000000000000000000D4
:1027060000000000000000000000000000000000C3
:1027160000000000000000000000000000000000B3
:1027260000000000000000000000000000000000A3
:1027360000000000204F4646202020000000000038
:102746000000000000000000000000000000000083
:102756000000000000000000000000000000000073
:102766000000000000000000000000000000000063
:102776000000000000000000000000000000000053
:102786000000000000000000000000000000000043
:102796000000000000000000204F4E2020202000F6
:1027A6000000000000000000000000000000000023
:1027B6000000000000000000000000000000000013
:1027C6000000000000000000000000000000000003
:1027D60000000000000000000000000000000000F3
:1027E60000000000000000000000000000000000E3
:1027F6000000000000000000000000004E484120DC
:1028060042455000000000000000000000000000EB
:1028160000000000000000000000000000000000B2
:1028260000000000000000000000000000000000A2
:102836000000000000000000000000000000000092
:102846000000000000000000000000000000000082
:102856000000000000000000000000000000000072
:102866004E5620545241490000000000000000006E
:102876000000000000000000000000000000000052
:102886000000000000000000000000000000000042
:102896000000000000000000000000000000000032
:1028A6000000000000000000000000000000000022
:1028B6000000000000000000000000000000000012
:1028C60000000000204F46462020200000000000A7
:1028D60000000000000000000000000000000000F2
:1028E60000000000000000000000000000000000E2
:1028F60000000000000000000000000000000000D2
:1029060000000000000000000000000000000000C1
:1029160000000000000000000000000000000000B1
:102926000000000000000000310000000000000070
:10293600000000001406800000004000140054004F
:10294600000000008204EF031904CF044A0428049F
:102956003C040000000088055B05B8052F055305FB
:102966003F05300500000000BC06EF03B805B705BB
:10297600202050484F4E4720555620545520444F4E
:102986004E470020205665723A20312E3500476F9B
:10299600746F205265736574005265736574200008
:1029A60054696D6572203A002E0053746174757314
:1029B6003A00202020202020202020202020005601
:1029C60069205472693A00436F6E672042616F2036
:1029D60056650074657374200074657374005265DF
:1029E60073746172742000636865636B6F7574003D
:1029F6004E68616E20646F20005245434549564536
:102A0600004775692076642076616F003630000DC8
:022A16000A00B4
:107800000C94343C0C94513C0C94513C0C94513CE1
:107810000C94513C0C94513C0C94513C0C94513CB4
:107820000C94513C0C94513C0C94513C0C94513CA4
:107830000C94513C0C94513C0C94513C0C94513C94
:107840000C94513C0C94513C0C94513C0C94513C84
:107850000C94513C0C94513C0C94513C0C94513C74
:107860000C94513C0C94513C11241FBECFEFD8E036
:10787000DEBFCDBF11E0A0E0B1E0ECE9FFE702C060
:1078800005900D92A230B107D9F712E0A2E0B1E065
:1078900001C01D92AD30B107E1F70E942D3D0C945F
:1078A000CC3F0C94003C982F959595959595959582
:1078B000905D8F708A307CF0282F295A8091C0000B
:1078C00085FFFCCF9093C6008091C00085FFFCCF60
:1078D0002093C6000895282F205DF0CF982F809127
:1078E000C00085FFFCCF9093C6000895EF92FF92F1
:1078F0000F931F93EE24FF2487018091C00087FD22
:1079000017C00894E11CF11C011D111D81E4E8164B
:1079100082E4F8068FE0080780E0180770F3E09132
:107920000401F091050109958091C00087FFE9CF1E
:107930008091C6001F910F91FF90EF9008950E94D3
:10794000763C982F8091C00085FFFCCF9093C600B5
:1079500091362CF490330CF09053892F089597555D
:10796000892F08951F930E949F3C182F0E949F3CCF
:107970001295107F810F1F9108951F93182F882350
:1079800021F00E94763C1150E1F71F9108951F935A
:10799000182F0E94763C803249F0809103018F5F5E
:1079A000809303018530C1F01F9108958091C0003C
:1079B00085FFFCCF84E18093C6008091C00085FFE5
:1079C000FCCF1093C6008091C00085FFFCCF80E102
:1079D0008093C6001F910895E0910401F091050184
:1079E00009951F9108950E94763C803241F0809164
:1079F00003018F5F80930301853081F008958091AA
:107A0000C00085FFFCCF84E18093C6008091C00058
:107A100085FFFCCF80E18093C6000895E0910401CA
:107A2000F09105010995089540E951E08823A1F0FE
:107A30002D9A28EE33E0FA013197F1F721503040CA
:107A4000D1F72D9828EE33E0FA013197F1F7215064
:107A50003040D1F7815061F708953F924F925F9285
:107A60006F927F928F929F92AF92BF92CF92DF924E
:107A7000EF92FF920F931F93CF93DF93000080E16B
:107A80008093C4001092C50088E18093C10086E015
:107A90008093C2005098589A259A81E00E94143D24
:107AA00024E1F22E9EE1E92E85E9D82E0FE0C02ECA
:107AB00010E1B12EAA24A394B1E49B2EA6E58A2E50
:107AC000F2E57F2EE0E26E2E79E4572E63E5462E36
:107AD00050E5352E0E94763C8033B1F18133B9F107
:107AE000803409F46FC0813409F476C0823409F41B
:107AF00085C0853409F488C0803531F1823521F1A3
:107B0000813511F1853509F485C0863509F48DC0BC
:107B1000843609F496C0843709F403C1853709F423
:107B200072C1863709F466C0809103018F5F80932C
:107B30000301853079F6E0910401F0910501099582
:107B40000E94763C803351F60E94F33CC3CF0E94E2
:107B5000763C803249F78091C00085FFFCCFF092DF
:107B6000C6008091C00085FFFCCF9092C600809136
:107B7000C00085FFFCCF8092C6008091C00085FFC9
:107B8000FCCF7092C6008091C00085FFFCCF609250
:107B9000C6008091C00085FFFCCF5092C600809146
:107BA000C00085FFFCCF4092C6008091C00085FFD9
:107BB000FCCF3092C6008091C00085FFFCCFB09210
:107BC000C60088CF0E94763C863808F4BDCF0E945C
:107BD000763C0E94F33C7ECF0E94763C803809F4CC
:107BE0009CC0813809F40BC1823809F43CC1883942
:107BF00009F48FC080E00E94C73C6CCF84E10E94F2
:107C0000BD3C0E94F33C66CF85E00E94BD3C0E94D3
:107C1000F33C60CF0E94763C809306010E94763C44
:107C2000809307010E94F33C55CF0E94763C80333D
:107C300009F41DC183E00E94BD3C80E00E94C73C66
:107C400049CF0E94763C809309020E94763C809343
:107C5000080280910C028E7F80930C020E94763C79
:107C6000853409F415C18091080290910902892B8D
:107C700089F000E010E00E94763CF801E85FFE4FDA
:107C800080830F5F1F4F80910802909109020817AF
:107C9000190788F30E94763C803209F045CF809125
:107CA0000C0280FF01C16091060170910701660F0F
:107CB000771F7093070160930601A0910802B091AD
:107CC00009021097C9F0E8E0F1E09B01AD014E0F09
:107CD0005F1FF999FECF32BD21BD819180BDFA9A17
:107CE000F99A2F5F3F4FE417F50799F76A0F7B1F4B
:107CF00070930701609306018091C00085FFFCCF5F
:107D0000F092C6008091C00085FFFCCFB092C60003
:107D1000E1CE83E00E94C73CDDCE82E00E94C73CFA
:107D2000D9CE0E94763C809309020E94763C8093D3
:107D300008028091060190910701880F991F909386
:107D40000701809306010E94763C853409F4A6C0A1
:107D500080910C028E7F80930C020E94763C8032D0
:107D600009F0B8CE8091C00085FFFCCFF092C6002C
:107D7000609108027091090261157105B9F140E046
:107D800050E080910C02A82FA170B82FB27011C0E2
:107D9000BB2309F45CC0E0910601F0910701319624
:107DA000F0930701E09306014F5F5F4F46175707B7
:107DB000E8F4AA2369F3F999FECF209106013091E6
:107DC000070132BD21BDF89A90B58091C00085FFB2
:107DD000FCCF9093C6002F5F3F4F30930701209355
:107DE00006014F5F5F4F4617570718F38091C00099
:107DF00085FDE5CE8091C00085FFF8CFE0CE81E023
:107E00000E94C73C67CE0E94763C803209F08CCE3F
:107E10008091C00085FFFCCFF092C6008091C00029
:107E200085FFFCCFE092C6008091C00085FFFCCFAB
:107E3000D092C6008091C00085FFFCCFC092C600E2
:107E40008091C00085FFFCCFB092C60043CEE09188
:107E50000601F091070194918091C00085FFFCCF4D
:107E60009093C6009CCF80E10E94C73C33CE0E9415
:107E7000763C0E94763C182F0E94763C112309F430
:107E800083C0113009F484C08FE00E94C73C22CE29
:107E900080910C02816080930C02E5CE80910C02EF
:107EA000816080930C0259CF809107018823880F4D
:107EB000880B8A2180930B02809106019091070123
:107EC000880F991F90930701809306018091080203
:107ED00080FF09C080910802909109020196909359
:107EE000090280930802F894F999FECF1127E091D6
:107EF0000601F0910701C8E0D1E08091080290915D
:107F00000902103091F40091570001700130D9F34B
:107F100003E000935700E89500915700017001308D
:107F2000D9F301E100935700E89509901990009169
:107F3000570001700130D9F301E000935700E89534
:107F40001395103498F011270091570001700130FB
:107F5000D9F305E000935700E895009157000170B0
:107F60000130D9F301E100935700E895329602976A
:107F700009F0C7CF103011F00296E5CF112480919F
:107F8000C00085FFB9CEBCCE8EE10E94C73CA2CD19
:0C7F900085E90E94C73C9ECDF894FFCF0D
:027F9C00800063
:040000030000780081
:00000001FF
